:020000040000FA
:100000000C945D000C9485000C9485000C94850084
:100010000C9485000C9485000C94BC0D0C94850008
:100020000C9485000C9485000C9485000C9485003C
:100030000C9485000C9485000C9485000C9485002C
:100040000C94C6020C9485000C9485000C948500D9
:100050000C9485000C9485000C9485000C9485000C
:100060000C9485000C94850000000008000201003B
:100070000003040700000000000000000000000072
:10008000250028002B0000000000240027002A0083
:10009000040404040404040402020202020203032E
:1000A0000303030301020408102040800102040836
:1000B00010200102040810201B0E11241FBECFEFD8
:1000C000D8E0DEBFCDBF11E0A0E0B1E0ECEEFEE194
:1000D00002C005900D92A433B107D9F721E0A4E343
:1000E000B1E001C01D92AE3DB207E1F710E0CDE5F1
:1000F000D0E004C02197FE010E945E0FCC35D107ED
:10010000C9F70E94BF0D0C94740F0C94000090E08E
:10011000FC01EC55FF4F249180579F4FFC018491C7
:10012000882399F090E0880F991FFC01EA57FF4F50
:10013000A591B491FC01E458FF4F859194918FB73C
:10014000F894EC91E22BEC938FBF0895AF92BF929D
:10015000CF92DF92EF92FF920F931F93CF93DF9393
:100160006C017B018B01040F151FEB015E01AE18C2
:10017000BF08C017D10759F06991D601ED91FC91E4
:100180000190F081E02DC6010995892B79F7C50111
:10019000DF91CF911F910F91FF90EF90DF90CF9063
:1001A000BF90AF90089590E0FC01E859FF4F249173
:1001B000FC01EC55FF4F3491FC01E057FF4FE491F7
:1001C000EE23C9F0222339F0233001F1A8F42130C5
:1001D00019F1223029F1F0E0EE0FFF1FE458FF4F34
:1001E000A591B4918FB7F894EC91611126C0309528
:1001F0003E233C938FBF08952730A9F02830C9F0E3
:10020000243049F7809180008F7D03C08091800069
:100210008F7780938000DFCF84B58F7784BDDBCF6D
:1002200084B58F7DFBCF8091B0008F778093B00035
:10023000D2CF8091B0008F7DF9CF3E2BDACF0895D9
:1002400090E080E00895CF93DF93EC0160E08E8131
:100250000E94D30061E08E810E94D30060E08E8115
:100260000E94D3008BE891E00197F1F7DF91CF91E5
:100270000895CF92DF92EF92FF920F931F93CF9347
:10028000DF936C017C0187E0E80EF11CD0E0C0E058
:10029000062F10E0B8010C2E02C0759567950A94E0
:1002A000E2F76170F70181917F010E94D3002196EE
:1002B000C430D10579F7C601DF91CF911F910F911D
:1002C000FF90EF90DF90CF900C942301CF92DF92BC
:1002D000EF92FF920F931F93CF93DF93EC01F62ED3
:1002E000642F8C810E94D3008D818F3F19F060E0D4
:1002F0000E94D3000F2D10E08F8584FF25C06E0172
:1003000087E0C80ED11CF12CE12CB8010E2C02C0E4
:10031000759567950A94E2F76170F60181916F0116
:100320000E94D300FFEFEF1AFF0A88E0E816F104FD
:1003300061F7CE01DF91CF911F910F91FF90EF9068
:10034000DF90CF900C942301B80184E075956795F8
:100350008A95E1F7CE010E9439016F2DCE01DF9120
:10036000CF911F910F91FF90EF90DF90CF900C9461
:10037000390140E061E082EC91E00E9466018BE38C
:100380009FE10197F1F70895CF93DF93823029F42D
:100390009091D10198609093D1018093D5011092F2
:1003A000D60180E48093D70180E18093D80180E575
:1003B0008093D9018091C6010E9487008091C70176
:1003C0008F3F11F00E9487008091C8010E94870032
:1003D000C2ECD1E09E01225C31408091D10184FDCC
:1003E0000AC084E090E02196281739073CF48E81FA
:1003F0000E948700EFCF88E090E0F5CF8BE39DE08F
:100400000197F1F760E08091C6010E94D30060E09F
:100410008091C8010E94D3008091C7018F3F19F0DD
:1004200060E00E94D3006091D10164FD3DC063E0B3
:1004300082EC91E00E943901CBE4D6E4CE01019731
:10044000F1F763E082EC91E00E9439012197F1F726
:1004500063E082EC91E00E94390183E592E001972C
:10046000F1F762E082EC91E00E9439016091D101E4
:10047000606240E082EC91E00E94660184E080933B
:10048000D20140E06CE082EC91E00E9466010E94A3
:10049000B90182E08093D30140E066E082EC91E014
:1004A000DF91CF910C946601606240E082EC91E0B4
:1004B0000E9466018BE496E40197F1F76091D10107
:1004C000606240E082EC91E00E94660183E592E088
:1004D0000197F1F76091D101606240E082EC91E018
:1004E0000E946601C3CF41E00E94660181E090E076
:1004F00008950F931F9382E00E94C40110E000E072
:1005000022E040EC50E070E060E08EEA92E00E9471
:10051000C60B21E040EC50E070E060E086E992E03C
:100520000E94C60B1F910F910C94F00C0E94B90110
:1005300048E050E060E271E082EC91E00E94A600A9
:100540000E94D70360E082E390E00E941A050E94B7
:1005500068068111EBCF0E94AA05E8CF0E94B9017D
:100560004AE050E069E271E082EC91E00E94A6006E
:100570000E94D70360E08CE090E00E941A050E9480
:1005800068068111EBCF0E94AA05E8CF1F920F9257
:100590000FB60F9211242F933F938F939F93AF9396
:1005A000BF938091650190916601A0916701B09120
:1005B00068013091640123E0230F2D3758F501962F
:1005C000A11DB11D20936401809365019093660184
:1005D000A0936701B09368018091600190916101DF
:1005E000A0916201B09163010196A11DB11D80939C
:1005F000600190936101A0936201B0936301BF9188
:10060000AF919F918F913F912F910F900FBE0F90BF
:100610001F90189526E8230F0296A11DB11DD2CF79
:10062000E0916B01F0916C018081811107C08FEF27
:100630009FEF90935401809353010895E0916B01D3
:10064000F0916C010580F681E02D80819181F1CFE0
:10065000CF93DF93DC011596ED91FC910680F78135
:10066000E02DA489B5898685978520893189EC019B
:100670003D832C83C089D1899B838A83CF010C96CB
:1006800011962D913C9112972817390721F4129653
:10069000DC93CE931197158A148A2C9121502C93B8
:1006A00020915101211157C0A285B3858481958184
:1006B00026813781EC013D832C83C681D7819B83C2
:1006C0008A83CF01029611962D913C91129728179B
:1006D000390721F41296DC93CE9311971386128674
:1006E0002C9121502C93C6892091BE012C1710F417
:1006F000C093BE0129E02C9FE0011124C656DE4FB5
:100700000980DA81C02DD583C4834C815D815783F4
:100710004683AC81BD8113969C938E9312979D83E3
:100720008C83A689A29FD0011124A656BE4FB38701
:10073000A2878C918F5F8C93A0913401B091350189
:10074000968956968C91891730F581E080935001F7
:10075000DF91CF910895A0918001B0918101B78779
:10076000A68714962D913C911597318B208B14966A
:10077000CD91DC9115979B838A8315969C938E93DC
:1007800014978FE791E0958B848B80917F018F5F29
:1007900080937F01D1CF80E0DBCF0FB6F8940F922A
:1007A00080915701909158010F900FBE089580914C
:1007B00051018F5F8093510108950FB6F8940F9205
:1007C000FC01928D0F900FBE81E0911180E00895A1
:1007D000EF92FF920F931F93CF93DF93EC010FB62D
:1007E000F8940F921E8D7C0181E1E80EF11C01E06E
:1007F0001116D4F08FEF8E8F0F900FBE0FB6F894B6
:100800000F921D8D7E0188E0E80EF11C01E01116AB
:10081000B4F08FEF8D8F0F900FBEDF91CF911F91AE
:100820000F91FF90EF9008958989882319F3C701EC
:100830000E9428038111009350011150D9CF88855F
:10084000882339F3C7010E942803811100935001C6
:100850001150DDCFCF93DF93FC01A085B18582815C
:10086000938124813581EC013D832C83C481D58122
:100870009B838A8311968D919C9112978E179F0767
:1008800021F41296DC93CE931197118610868C91E9
:1008900081508C938C91DF91CF9108950F931F938A
:1008A000CF93DF938C01FB0180819181D801139656
:1008B0008F3F9807F1F4E801AF81B88512968D91CA
:1008C0009C91139793838283EC01FD83EC83B58322
:1008D000A4831396FC93EE93129711870087F80177
:1008E00080818F5F8083DF91CF911F910F91089559
:1008F000D90112962D913C911397E90148815981B4
:1009000084179507A8F7DACFFC0173836283918778
:1009100080874617570790F0421B530B84859585B7
:1009200048175907C8F4BF016E5F7F4F80915C0183
:1009300090915D010E944E0480E008954217530794
:1009400018F46217730740F4BF016E5F7F4F809108
:100950005E0190915F01EECF81E00895EF92FF92EA
:100960000F931F93CF93DF93EC018B017A016C857A
:100970007D85600F711F9801A701CE010E9484043C
:10098000811107C0DF91CF911F910F91FF90EF90E0
:1009900008958C859D85080F191FE889F989CE0176
:1009A0000995E5CFEF92FF920F931F93CF93DF93BB
:1009B0008C017B01E0915E01F0915F010580F68181
:1009C000E02DC681D781CE0102960E942A048A8931
:1009D00082FF0FC0A701B801CE010E94AE04E889D2
:1009E000F989CE01DF91CF911F910F91FF90EF9088
:1009F00009948E7F8A8BF3CFE0915E01F0915F01C5
:100A0000808181110DC080915C0190915D01909376
:100A10005F0180935E01F0935D01E0935C010895B6
:100A20000580F681E02D6FEF7FEF808191810E943C
:100A3000D204E2CFFF920F931F93CF93DF93EC0189
:100A4000F62E009157011091580180913401909138
:100A5000350102960E942A04CF3FDC07E9F5FF200A
:100A6000D9F1E0916E01F0916F01A0913401B09144
:100A700035011596FC93EE931497A0913401B09133
:100A800035018481958117969C938E93169780915A
:100A9000340190913501A481B581029613969C93FF
:100AA0008E9312978091340190913501029695832F
:100AB0008483E0913401F09135018DE691E09387D4
:100AC000828780916D018F5F80936D01DF91CF915F
:100AD0001F910F91FF900895C00FD11FE091340135
:100AE000F0913501D383C283609134017091350157
:100AF000C017D10768F48091690190916A016E5F17
:100B00007F4FDF91CF911F910F91FF900C944E0476
:100B100080916B0190916C016E5F7F4F0E944E043B
:100B20008091530190915401C817D90778F6D0935A
:100B30005401C0935301CACFFC0103969283818371
:100B40002FEF3FEF348323839683858390878783BA
:100B5000108208950F920FB6F8940F921F921124ED
:100B60002F923F924F925F926F927F928F929F92BD
:100B7000AF92BF92CF92DF92EF92FF920F931F93AB
:100B80002F933F934F935F936F937F938F939F9395
:100B9000AF93BF93CF93DF93EF93FF93A091340173
:100BA000B09135010DB60D920EB60D9280915101A6
:100BB000882321F081E0809350015FC010925001A2
:100BC000A0913401B0913501E0913401F0913501EB
:100BD0002D913C918789908D82179307A8F0809181
:100BE0003401909135018091340190913501259A1D
:100BF0002D9A2FEF87EA91E6215080409040E1F74F
:100C000000C000001D9AF5CF2091BE0189E001C00F
:100C10002150422F50E0849FF001859FF00D112458
:100C2000E656FE4F9081992399F3A181B2811296E5
:100C30000D90BC91A02DB283A183289FC0011124E7
:100C400083569E4FA817B90729F412968D919C914F
:100C50009283818389E0849FF001859FF00D1124A8
:100C6000E656FE4F0180F281E02D868197819093B8
:100C70003501809334012093BE01A0913401B091DD
:100C80003501CD91CDBFDD91DEBFFF91EF91DF91B9
:100C9000CF91BF91AF919F918F917F916F915F9114
:100CA0004F913F912F911F910F91FF90EF90DF9007
:100CB000CF90BF90AF909F908F907F906F905F90FC
:100CC0004F903F902F901F900F900FBE0F90089560
:100CD0008F929F92BF92CF92DF92EF92FF920F93EB
:100CE0001F93CF93DF930FB6F8940F928091510129
:100CF00081508093510180915101882379F080E0E7
:100D00000F900FBEDF91CF911F910F91FF90EF9049
:100D1000DF90CF90BF909F908F9008958091C101F8
:100D2000882369F3E0908401F0908501F0E0E0E031
:100D300039E041E080917F0181115EC0EF2B11F01D
:100D40000E941003E0904E01F0904F01E114F10475
:100D500009F47DC189E0D82ECC24C3940FEF1FEF96
:100D600080915101811161C1C0915701D091580109
:100D70004E018FEF881A980A90925801809257017D
:100D800081149104B9F480916B0190916C012091D0
:100D9000690130916A0130936C0120936B0190934B
:100DA0006A0180936901809159018F5F8093590195
:100DB0000E9410038091530190915401B12C881628
:100DC000990608F026C1E0913401F0913501E689D9
:100DD000DE9EF0011124E656FE4F8081823010F035
:100DE000BB24B39480915001811103C0BB2009F44E
:100DF00025C1C092500122C1D7011696ED91FC91F8
:100E0000A489B5896685778580899189EB019D8361
:100E10008C8380899189EC017B836A83BF01645F45
:100E20007F4F11960D911C9112970617170721F409
:100E300012969C938E931197158A148A8C918150E7
:100E40008C93A285B3858481958166817781EC013D
:100E50007D836C8366817781EB019B838A83CF01DD
:100E6000029611960D911C9112970817190721F4FB
:100E700012967C936E931197138612862C912150B3
:100E80002C93A6892091BE012A1710F4A093BE01CD
:100E90003A9FD0011124A656BE4F11960D90BC91D9
:100EA000A02DB583A48314966D917C9115977783BB
:100EB000668314966D917C911597EB019B838A83D1
:100EC00015969C938E9314979689939FD001112425
:100ED000A656BE4FB387A2878C918F5F8C93A0914B
:100EE0003401B091350156968C91981708F422CFB1
:100EF000409350011FCFE0916B01F0916C01058090
:100F0000F681E02D0680F781E02D8281938188169D
:100F1000990628F4909354018093530154CFC285CD
:100F2000D3858481958126813781DC0115963C9398
:100F30002E93149726813781D90113969C938E9313
:100F40001297CF01029649815A814817590711F427
:100F50003A83298313861286288121502883A48905
:100F6000B5891097F9F02685378540895189E901BF
:100F70005D834C8340895189EA013B832A83119622
:100F80006D917C9112979F01245F3F4F6217730709
:100F900021F412965C934E931197158A148A2C9122
:100FA00021502C93A6892091BE012A1710F4A093FA
:100FB000BE01DA9ED0011124A656BE4F11960D90A7
:100FC000BC91A02DB583A48314962D913C911597C7
:100FD0003783268314962D913C911597E9019B83C5
:100FE0008A8315969C938E93149796899D9DD00124
:100FF0001124A656BE4FB387A2878C918F5F8C9326
:10100000E0913401F09135018689981710F0BB24E6
:10101000B394E0916B01F0916C01808181116BCFF1
:101020001093540100935301CECE80914E019091C4
:101030004F01019690934F0180934E01D1E0ED1A3C
:10104000F10809F08DCE10924F0110924E0180915F
:101050005001882309F453CE0E94AA0581E050CEA6
:101060000F920FB6F8940F921F9211242F923F9275
:101070004F925F926F927F928F929F92AF92BF92A8
:10108000CF92DF92EF92FF920F931F932F933F9394
:101090004F935F936F937F938F939F93AF93BF9380
:1010A000CF93DF93EF93FF93A0913401B09135017B
:1010B0000DB60D920EB60D9213BE809151018111A5
:1010C000F9C0809157019091580101969093580171
:1010D00080935701009781F520916B0130916C014D
:1010E0004091690150916A0150936C0140936B01EA
:1010F00030936A0120936901209159012F5F209359
:101100005901E0916B01F0916C012081211107C020
:101110002FEF3FEF30935401209353010DC0E09126
:101120006B01F0916C010580F681E02D2081318109
:101130003093540120935301209153013091540175
:101140008217930710F420E0A1C020E039E0D32EED
:10115000E0916B01F0916C013081311107C08FEF8C
:101160009FEF909354018093530190C0E0916B01E5
:10117000F0916C010580F681E02D0680F781E02D6D
:10118000428153818417950728F45093540140936A
:1011900053017CC0A285B3854481558166817781E6
:1011A000EA017D836C8366817781EB015B834A83EF
:1011B000AF014E5F5F4F11960D911C91129704176E
:1011C000150721F412967C936E931197138612865D
:1011D0003C9131503C93A489B5891097F9F066850C
:1011E000778500891189EB011D830C8300891189A2
:1011F000E8017B836A831196ED90FC901297BF0102
:10120000645F7F4FE616F70621F412961C930E9347
:101210001197158A148A3C9131503C93A6893091DC
:10122000BE013A1710F4A093BE01DA9ED00111243A
:10123000A656BE4F11960D90BC91A02DB583A483E8
:1012400014966D917C9115977783668314966D91B2
:101250007C911597EB015B834A8315965C934E93C3
:10126000149746894D9DD0011124A656BE4FB387D1
:10127000A2873C913F5F3C93E0913401F0913501AE
:101280003689431708F464CF21E062CFE09134013E
:10129000F0913501E689D9E0ED9FF0011124E65681
:1012A000FE4F8081823008F021E080915001811151
:1012B0000EC00AC080914E0190914F01019690930B
:1012C0004F0180934E016AC0222309F467C08091C8
:1012D0005101882321F081E0809350015FC010927A
:1012E0005001A0913401B0913501E0913401F091A9
:1012F00035012D913C918789908D82179307A8F035
:1013000080913401909135018091340190913501A3
:10131000259A2D9A2FEF87EA91E621508040904040
:10132000E1F700C000001D9AF5CF2091BE0189E0D1
:1013300001C02150422F50E0849FF001859FF00DA5
:101340001124E656FE4F9081992399F3A181B28131
:1013500012960D90BC91A02DB283A183289FC0014D
:10136000112483569E4FA817B90729F412968D9120
:101370009C919283818389E0849FF001859FF00D89
:101380001124E656FE4F0180F281E02D868197817F
:1013900090933501809334012093BE01A0913401D4
:1013A000B0913501CD91CDBFDD91DEBFFF91EF91C1
:1013B000DF91CF91BF91AF919F918F917F916F916D
:1013C0005F914F913F912F911F910F91FF90EF905F
:1013D000DF90CF90BF90AF909F908F907F906F9055
:1013E0005F904F903F902F901F900F900FBE0F90E7
:1013F0000895CF93DF93009751F0EC010E94D7033B
:10140000CE010E94D50EDF91CF910C946806DF913A
:10141000CF910895CF93DF9300D000D01F92CDB726
:10142000DEB7E0915E01F0915F011081F12CE12CBB
:10143000112329F00580F681E02DE080F1800E94E3
:10144000D7030E94CD036C01809155019091560104
:10145000C816D90608F085C00E94FC04D092560137
:10146000C09255010E94680600915A0110915B01DB
:101470000FB6F8940F92D8015A96FC905A97FF2015
:1014800009F430C15C964C915C97442301F150E023
:1014900016968D919C911797840F951F17969C9384
:1014A0008E93169714962D913C911597821793075A
:1014B00038F08D919C91119717969C938E93169767
:1014C000F80166817781CE0101960E94640FFA943B
:1014D000D8015A96FC925A9718968C91882339F025
:1014E000C80108960E94280381110E94AA050F9046
:1014F0000FBED980D7FCB8CF0C811D81D8011A96B8
:101500008D919C91892B21F0C80102960E942A049A
:101510000E94CD037C018091550190915601E816FF
:10152000F90610F40E94FC04F0925601E092550175
:10153000EFEFED0DE93008F097CF0E2E000CFF0B0A
:10154000E855F54FD80152968C9152970C945E0F46
:101550002B0B2B0B6E0B560B680B2B0B2B0B6E0BED
:10156000560BD0925601C0925501112351F0CE1462
:10157000DF0470F00E946806B601C7010E94D20421
:1015800073CFE0915C01F0915D01808161E0811198
:1015900060E000915A0110915B010FB6F8940F9230
:1015A000D8015D968C915D978F3F11F45D961C92EA
:1015B000F801868D8F3F09F4168E0F900FBED8016B
:1015C0005A968C915A9781113CC05296ED91FC919C
:1015D000A0913401B09135011F96FC93EE931E97B4
:1015E000A0913401B09135018481958151969C93ED
:1015F0008E9350978091340190913501A481B581EB
:101600000C9613969C938E9312978091340190912F
:1016100035010C9695838483E0913401F091350176
:10162000C8014196958B848BF80181898F5F818BEE
:10163000C7018C199D09662311F08FEF9FEF0E945F
:101640001A05C8010E94E8030E94680681110CCFA8
:101650000E94AA0509CF8160F801828BCA80DB80D5
:10166000648575856C0D7D1D9601A701C8010E94DA
:101670008404882309F4F8CED80152968C915297AD
:1016800082FF10C01C966D917C916C0D7D1DA70191
:10169000C8010E94AE04D8015096ED91FC91C8019A
:1016A0000995E2CE8E7FF801828BF5CF816052964C
:1016B0008C9352976A817B811D967C936E931C97C5
:1016C0006E0D7F1D9701A701C8010E948404CCCE36
:1016D00081FD04C0C8010E94F909C6CE8E7FF801C1
:1016E000828BC2CE0F900FBE9CCE00E010E08091A6
:1016F000520181110CC080919A01823010F00E9439
:10170000AA050115110599F30E940000F0CF0FB64C
:10171000F8940F92E0917B01F0917C01C681D78112
:10172000CE0102960E942A048091C10181508093CB
:10173000C101809152018150809352010F900FBEE0
:101740008F89988D0E94F909CE010E94F909CFCFA7
:10175000CF93DF93EC010E94D703CE010E94390E94
:10176000EC010E946806209769F4259A2D9A2FEFC4
:1017700080E792E0215080409040E1F700C00000F7
:101780001D9AF5CFCE01DF91CF9108957F928F9270
:101790009F92AF92BF92CF92DF92EF92FF920F9300
:1017A0001F93CF93DF93782E892E7B016A01922EAF
:1017B000CA010E94A80B5C01892B09F4D9C088E2F8
:1017C00090E00E94A80BEC01892B09F4CEC088E2BE
:1017D000DE011D928A95E9F7B88EAF8AA60165EA07
:1017E00070E0C5010E946D0FB1E0CB1AD108EF89FE
:1017F000F88DEC0DFD1DE114F10409F0C8C09E8ABE
:1018000099A21B861A861D8A1C8AD987C88784E0FC
:1018100090E0891991099D878C87DB8BCA8B708238
:10182000DF0111978C9211971C92119780E88C938D
:1018300011971C9257971C9211971C92B397F9839A
:10184000E8830115110519F0F801D183C0830FB6A3
:10185000F8940F928091C1018F5F8093C1018091B4
:10186000340190913501892B09F0A8C0D09335013E
:10187000C09334018091C101813081F58AE991E002
:101880000E949C0583EA91E00E949C058CEA91E00D
:101890000E949C0585EB91E00E949C0581E991E006
:1018A0000E949C0588E891E00E949C058FE791E0EA
:1018B0000E949C0586E791E00E949C058DE691E0E0
:1018C0000E949C0581E991E090936C0180936B01EB
:1018D00088E891E090936A01809369018091BF014B
:1018E0008F5F8093BF01AE898091BE018A1710F48B
:1018F000A093BE0129E02A9FD0011124A656BE4F15
:1019000011960D90BC91A02DBD83AC8314968D9142
:101910009C9115979F838E831496ED91FC9115975A
:10192000CE0102969383828315969C938E9314978F
:10193000EE89E29FF0011124E656FE4FFB87EA870D
:1019400080818F5F80830F900FBE8091C0018823BC
:1019500051F0E0913401F091350196898E89981704
:1019600010F40E94AA0581E004C0C5010E94F90993
:101970008FEFDF91CF911F910F91FF90EF90DF904C
:10198000CF90BF90AF909F908F907F900895CE01A1
:1019900049969701285F3F4FD7014D917D01DC01AA
:1019A0004D93CD01A70141505109DA014C914423D7
:1019B00019F0E216F30681F718A221CF8091C00139
:1019C00081118CCFE0913401F091350196898E8997
:1019D000891708F483CFD0933501C09334017ECFAB
:1019E0000F931F93CF93DF930CE411E020E040ECC2
:1019F00050E063E171E085E79BE00E94C60B813017
:101A000009F0B3C00FB6F8940F9280915A019091EB
:101A10005B01892B09F04FC081E491E00E949C0595
:101A200088E391E00E949C0581E491E090935F013E
:101A300080935E0188E391E090935D0180935C0167
:101A400081E590E00E94A80BEC01009781F14F9690
:101A5000998388838AE08B8F85E08C8F0FB6F8940A
:101A60000F92888199812B8D4C8DBC01249F600D34
:101A7000711D11247D836C831A8E9B838A83215070
:101A8000330B429FB001439F700D1124860F971FA7
:101A90009F838E838FEF8D8F8E8FCE0108960E944D
:101AA0009C05CE0141960E949C050F900FBED093DD
:101AB0005B01C0935A010F900FBE80915A01909123
:101AC0005B01892B09F451C00AE411E023E045E5EC
:101AD00050E068E171E08AE09AE00E94C60B813034
:101AE00009F043C0F8942FEF3FEF30935401209357
:101AF00053018093C0011092580110925701A8958C
:101B000088E190EC0FB6F894A895809360000FBE22
:101B100090936000A0913401B0913501CD91CDBF7B
:101B2000DD91DEBFFF91EF91DF91CF91BF91AF913A
:101B30009F918F917F916F915F914F913F912F91E5
:101B40001F910F91FF90EF90DF90CF90BF90AF90DB
:101B50009F908F907F906F905F904F903F902F90CD
:101B60001F900F900FBE0F90089580910001DF919C
:101B7000CF911F910F9108950E9430081895789485
:101B800084B5826084BD84B5816084BD85B5826082
:101B900085BD85B5816085BD80916E008160809333
:101BA0006E0010928100809181008260809381009C
:101BB00080918100816080938100809180008160AC
:101BC000809380008091B10084608093B100809107
:101BD000B00081608093B00080917A00846080932F
:101BE0007A0080917A00826080937A0080917A00F6
:101BF000816080937A0080917A00806880937A0077
:101C00001092C10020910501309106018FEF98E0FC
:101C1000821B930B90930201809301010E94790231
:101C20000E94F00C0E947902C0E0D0E02097F1F30E
:101C30000E940000FBCFE2ECF1E0138212828BE005
:101C400091E0918380838DE084838FEF85838CE0A6
:101C500086838BE087838AE0808789E0818788E0BC
:101C600082871386148615861686178681E00C9463
:101C7000C4010F931F93CF93DF938230910510F42B
:101C800082E090E0E091DC01F091DD0130E020E0C5
:101C9000B0E0A0E0309799F42115310509F44AC06D
:101CA000281B390B24303105D8F58A819B816115B9
:101CB000710589F1FB0193838283FE0111C040818C
:101CC00051810281138148175907E0F048175907DD
:101CD00099F4109761F012960C93129713961C9337
:101CE0003296CF01DF91CF911F910F91089500930C
:101CF000DC011093DD01F4CF2115310551F04217BD
:101D0000530738F0A901DB019A01BD01DF01F80199
:101D1000C1CFEF01F9CF9093DD018093DC01CDCFEE
:101D2000FE01E20FF31F8193919322503109398311
:101D30002883D7CF2091DA013091DB01232B41F4A6
:101D400020910301309104013093DB012093DA01EB
:101D500020910101309102012115310541F42DB787
:101D60003EB74091050150910601241B350BE091CF
:101D7000DA01F091DB01E217F307A0F42E1B3F0B11
:101D80002817390778F0AC014E5F5F4F24173507ED
:101D900048F04E0F5F1F5093DB014093DA018193AF
:101DA00091939FCFF0E0E0E09CCFCF93DF9300973B
:101DB000E9F0FC01329713821282A091DC01B0910C
:101DC000DD01ED0130E020E01097A1F420813181A8
:101DD000820F931F2091DA013091DB012817390718
:101DE00009F061C0F093DB01E093DA01DF91CF915C
:101DF0000895EA01CE17DF07E8F54A815B819E016D
:101E000041155105B1F7E901FB83EA8349915991E5
:101E1000C40FD51FEC17FD0761F4808191810296F4
:101E2000840F951FE90199838883828193819B8325
:101E30008A83F0E0E0E012968D919C9113970097D1
:101E4000B9F52D913C911197CD010296820F931F08
:101E50002091DA013091DB012817390739F63097E4
:101E600051F51092DD011092DC01B093DB01A093DB
:101E7000DA01BCCFD383C28340815181840F951F87
:101E8000C817D90761F44E5F5F4F88819981480F69
:101E9000591F518340838A819B81938382832115BB
:101EA000310509F0B0CFF093DD01E093DC019ECF66
:101EB000FD01DC01C0CF13821282D7CFEE0FFF1FCE
:101EC0000590F491E02D0994FB01DC0102C0019022
:101ED0000D9241505040D8F70895DC0101C06D9338
:101EE00041505040E0F70895F894FFCF030000DE22
:101EF000018000000000007302A60020011F0149BC
:101F0000444C4500546D72205376630030323A33AE
:101F10003320504D0031322F31322F3230323300E6
:107E0000112484B714BE81FFF0D085E080938100F7
:107E100082E08093C00088E18093C10086E0809377
:107E2000C20080E18093C4008EE0C9D0259A86E02C
:107E300020E33CEF91E0309385002093840096BBD3
:107E4000B09BFECF1D9AA8958150A9F7CC24DD24C4
:107E500088248394B5E0AB2EA1E19A2EF3E0BF2EE7
:107E6000A2D0813461F49FD0082FAFD0023811F036
:107E7000013811F484E001C083E08DD089C08234E0
:107E800011F484E103C0853419F485E0A6D080C0E4
:107E9000853579F488D0E82EFF2485D0082F10E0AE
:107EA000102F00270E291F29000F111F8ED06801E7
:107EB0006FC0863521F484E090D080E0DECF843638
:107EC00009F040C070D06FD0082F6DD080E0C81688
:107ED00080E7D80618F4F601B7BEE895C0E0D1E017
:107EE00062D089930C17E1F7F0E0CF16F0E7DF06D8
:107EF00018F0F601B7BEE89568D007B600FCFDCFD4
:107F0000A601A0E0B1E02C9130E011968C91119780
:107F100090E0982F8827822B932B1296FA010C0160
:107F200087BEE89511244E5F5F4FF1E0A038BF0790
:107F300051F7F601A7BEE89507B600FCFDCF97BE46
:107F4000E89526C08437B1F42ED02DD0F82E2BD052
:107F50003CD0F601EF2C8F010F5F1F4F84911BD097
:107F6000EA94F801C1F70894C11CD11CFA94CF0C13
:107F7000D11C0EC0853739F428D08EE10CD085E9AC
:107F80000AD08FE07ACF813511F488E018D01DD067
:107F900080E101D065CF982F8091C00085FFFCCF94
:107FA0009093C60008958091C00087FFFCCF809118
:107FB000C00084FD01C0A8958091C6000895E0E648
:107FC000F0E098E1908380830895EDDF803219F02E
:107FD00088E0F5DFFFCF84E1DECF1F93182FE3DFCA
:107FE0001150E9F7F2DF1F91089580E0E8DFEE27F6
:047FF000FF270994CA
:027FFE00040479
:00000001FF
