:100000000C9462000C948A000C948A000C948A0070
:100010000C948A000C948A000C94A8110C948A0009
:100020000C948A000C948A000C948A000C948A0028
:100030000C948A000C948A000C948A000C948A0018
:100040000C9407060C948A000C948A000C948A0085
:100050000C948A000C948A000C948A000C948A00F8
:100060000C948A000C948A000000000023002600F3
:10007000290000000000240027002A0000000000E2
:10008000250028002B0004040404040404040202D4
:100090000202020203030303030301020408102007
:1000A0004080010204081020010204081020000012
:1000B0000008000201000003040700000000000027
:1000C0000000071211241FBECFEFD8E0DEBFCDBF66
:1000D00011E0A0E0B1E0E4ECF6E202C005900D9280
:1000E000A233B107D9F721E0A2E3B1E001C01D922C
:1000F000AE3DB207E1F710E0C2E6D0E004C02197C0
:10010000FE010E944A13C136D107C9F70E94AB1104
:100110000C9460130C940000AF92BF92CF92DF92C8
:10012000EF92FF920F931F93CF93DF936C017B01AC
:100130008B01040F151FEB015E01AE18BF08C0173D
:10014000D10759F06991D601ED91FC910190F081B0
:10015000E02DC6010995892B79F7C501DF91CF9173
:100160001F910F91FF90EF90DF90CF90BF90AF90D5
:100170000895833081F028F4813099F08230A9F01D
:1001800008958730A9F08830C9F08430B1F48091A7
:1001900080008F7D03C0809180008F7780938000E6
:1001A000089584B58F7784BD089584B58F7DFBCF86
:1001B0008091B0008F778093B00008958091B00057
:1001C0008F7DF9CF1F93CF93DF93282F30E0F90174
:1001D000E255FF4F8491F901E656FF4FD491F901A2
:1001E000EA57FF4FC491CC23A9F0162F81110E942A
:1001F000B900EC2FF0E0EE0FFF1FE458FF4FA59180
:10020000B4918FB7F894EC91111108C0D095DE230A
:10021000DC938FBFDF91CF911F910895DE2BF8CF34
:10022000CF93DF9390E0FC01E656FF4F24918A576D
:100230009F4FFC0184918823D1F090E0880F991F93
:10024000FC01EE58FF4FA591B491FC01E458FF4F1B
:10025000C591D491623071F49FB7F8943C91822F8C
:10026000809583238C93E8812E2B28839FBFDF9179
:10027000CF9108958FB7F894EC912E2B2C938FBFCC
:10028000F6CF089590E080E00895CF93DF93EC01DE
:1002900060E08E810E94E20061E08E810E94E200B7
:1002A00060E08E810E94E2008BE891E00197F1F717
:1002B000DF91CF910895CF92DF92EF92FF920F934B
:1002C0001F93CF93DF936C017C0187E0E80EF11C54
:1002D000D0E0C0E0062F10E0B8010C2E02C07595EA
:1002E00067950A94E2F76170F70181917F010E949E
:1002F000E2002196C430D10579F7C601DF91CF9194
:100300001F910F91FF90EF90DF90CF900C944501DB
:10031000CF92DF92EF92FF920F931F93CF93DF93D1
:10032000EC01F62E642F8C810E94E2008D818F3FBC
:1003300019F060E00E94E2000F2D10E08F8584FF2D
:1003400025C06E0187E0C80ED11CF12CE12CB8014C
:100350000E2C02C0759567950A94E2F76170F6015C
:1003600081916F010E94E200FFEFEF1AFF0A88E01F
:10037000E816F10461F7CE01DF91CF911F910F9143
:10038000FF90EF90DF90CF900C944501B80184E08E
:10039000759567958A95E1F7CE010E945B016F2DF7
:1003A000CE01DF91CF911F910F91FF90EF90DF90E1
:1003B000CF900C945B01CF93DF93823029F490911E
:1003C000D10198609093D1018093D5011092D6010C
:1003D00080E48093D70180E18093D80180E5809309
:1003E000D90161E08091C6010E9410018091C7018E
:1003F0008F3F19F061E00E94100161E08091C80117
:100400000E941001C2ECD1E09E01225C314080913B
:10041000D10184FD0BC084E090E0219628173907B4
:1004200044F461E08E810E941001EECF88E090E0FC
:10043000F4CF8BE39DE00197F1F760E08091C60176
:100440000E94E20060E08091C8010E94E200809179
:10045000C7018F3F19F060E00E94E2006091D10176
:1004600064FD45C063E082EC91E00E945B01CBE457
:10047000D6E4CE010197F1F763E082EC91E00E94AF
:100480005B012197F1F763E082EC91E00E945B0150
:1004900083E592E00197F1F762E082EC91E00E943F
:1004A0005B016091D101606240E082EC91E00E94CA
:1004B000880184E08093D20140E06CE082EC91E01E
:1004C0000E94880140E061E082EC91E00E94880196
:1004D0008BE39FE10197F1F782E08093D30140E045
:1004E00066E082EC91E0DF91CF910C94880160622C
:1004F00040E082EC91E00E9488018BE496E4019751
:10050000F1F76091D101606240E082EC91E00E94DD
:10051000880183E592E00197F1F76091D101606273
:1005200040E082EC91E00E948801BBCF41E00E9454
:10053000880181E090E00895CF93DF9300D000D050
:100540001F92CDB7DEB72EEA222E20E0322E3AE9F6
:10055000632E30E0732E46E8A42E40E0B42E54E023
:10056000852E912C99E0592EF1018491F30114917B
:10057000F5010491011126C0009136011091370157
:100580001D821C8280E07801F8E0EF0EF11C0FB6AE
:10059000F8940F92D8015A962C915A975B969C9199
:1005A0005B97291708F0BBC05A964C905A975C96F7
:1005B0004C915C97411197C08D919C91892BF9F0DA
:1005C00080E027C081110E94B900E02FF0E0EE0F1B
:1005D000FF1FE859FF4FA591B4918C91182309F49E
:1005E000CBCF0E944B0760E08CE090E00E948E0829
:1005F0000E941D0A8111B8CF0E945F09B3CFF80194
:10060000E480F580E114F104B9F480E0F80115828A
:1006100014824394D8015A964C925A9751969C91C1
:10062000992321F0C80141960E949C0681110E94E5
:100630005F090F900FBED5CFD70192968C919297FC
:10064000815092968C93929756962C9156979196AC
:100650009C912917D1F28111D8CF6701B2E0CB0E5E
:10066000D11CC6010E949E07F70181A1868B282F0D
:1006700030E0A401421B530B558744879091BE0183
:10068000981710F48093BE01529EF001539EF00D16
:100690001124E656FE4F0180F281E02DD701159618
:1006A000FC93EE9314978481958117969C938E9377
:1006B0001697A481B5811396DC92CE921297D582BB
:1006C000C482D7015696EC915697E59DF00111240E
:1006D000E656FE4F1B96FC93EE931A9780818F5F30
:1006E000808381E093CF50E070E060E012968D91BE
:1006F0009C910E945013F801848D22813381820FD6
:10070000932F911D938382832481358182179307D0
:1007100008F456CF808191819383828351CF2C81BD
:100720003D81232B09F485CF811109C080915901A6
:10073000898380915701909158019B838A830F9000
:100740000FBE0E944B070FB6F8940F92F801858DEB
:100750008F3F09F4158ED8015E968C915E978F3F7E
:1007600011F45E961C920F900FBEBE016C5F7F4F1E
:10077000CE0101960E946906811120C00FB6F8943F
:100780000F92F801928D838D0F900FBE981310C0B9
:100790006C817D81C7010E941009C8010E945C071D
:1007A0000E941D0A811102C00E945F0981E0EFCE04
:1007B000C8010E945C070E941D0AF8CFC8010E9470
:1007C0005C070E941D0A0DCFCF93DF9300D000D0AD
:1007D0001F92CDB7DEB72BE3422E2FE1522E34E02D
:1007E000A32EB12C4CE0642E712C99E0392E84E0BC
:1007F000282E40E061E082EC91E00E948801C20175
:100800000197F1F72FEF81EE94E021508040904066
:10081000E1F700C0000000913601109137017D82A0
:100820006C82D12C90E04801A1E18A0E911C0FB698
:10083000F8940F92F801828D882309F43FC081500B
:10084000828F80819181892BB1F4809132019091C6
:100850003301892B39F0E0913201F091330182A10B
:100860008F5F82A38091320190913301D801159658
:100870009C938E931497F8018085882339F0C801E2
:1008800008960E949C0681110E945F090F900FBE7E
:1008900041E150E063E171E082EC91E00E948C0064
:1008A0000E944B0760E082E390E00E948E080E9465
:1008B0001D0A81119CCF0E945F0997CF2C813D8139
:1008C000232B19F40F900FBE94CF911109C0809182
:1008D0005901898380915701909158019B838A83A4
:1008E0000F900FBE0E944B070FB6F8940F92D801DD
:1008F0005D968C915D978F3F11F45D961C92F80187
:10090000868D8F3F09F4168E0F900FBEBE016C5F6F
:100910007F4FCE0101960E9469068111AFC0C801C8
:100920000E945107882309F4A3C0D8018D919C919E
:10093000892B09F078C00FB6F8940F92F801E48083
:10094000F580E114F10409F491C0D70156968C9119
:100950005697E0913201F09133019689891708F09A
:100960007AC01C962D913C911D9737FD0CC0E091EB
:100970003201F091330196899501291B31091D96A9
:100980003C932E931C97839DC001112486569E4F45
:10099000F701228533852817390709F054C067010C
:1009A000F2E0CF0ED11CC6010E949E07E0913201F9
:1009B000F0913301E689D7015696EC938091BE0100
:1009C0008E1710F4E093BE013E9EF0011124E6560E
:1009D000FE4F0180F281E02DD7011596FC93EE9336
:1009E00014978481958117969C938E931697A48172
:1009F000B5811396DC92CE921297D582C482D7012C
:100A00005696EC915697E39DF0011124E656FE4F61
:100A10001B96FC93EE931A9780818F5F8083DD2471
:100A2000D3940F900FBE6C817D81C4010E94100988
:100A3000C8010E945C070E941D0A811102C00E9429
:100A40005F0991E0F4CEE0913201F09133018689A3
:100A5000F701868BE4CFE0913201F0913301DD2480
:100A6000D39491969C9186899817D8F2D12CD9CF9E
:100A7000C8010E945C070E941D0AE3CFC8010E94C2
:100A80005C070E941D0AC8010E9451078823C9F211
:100A9000DD2009F4AECE0FB6F8940F92F8018189EB
:100AA000882309F479C00688F789E02D8081F22D2A
:100AB000F81B8F2FD80114960D911C91011511056B
:100AC00009F400CFF80191A1981708F4982FD801E4
:100AD00056968C915697891709F4F4CE92962C91DC
:100AE0009297213009F0EECE56969C9356971C961D
:100AF0002D913C911D9737FD07C09501291B3109A8
:100B00001D963C932E931C97839DC00111248656FD
:100B10009E4FF801228533852817390709F0D2CE78
:100B20007801F2E0EF0EF11CC7010E949E07D80188
:100B30005696EC918091BE018E1710F4E093BE01A1
:100B40003E9EF0011124E656FE4F0180F281E02D19
:100B5000D8011596FC93EE9314978481958117968E
:100B60009C938E931697A481B5811396FC92EE9276
:100B70001297F582E482D8015696EC915697E39D40
:100B8000F0011124E656FE4F1B96FC93EE931A9744
:100B900080818F5F808396CE80E08CCF0F931F93F0
:100BA000CF93DF9382E00E94DB0162E080E00E944D
:100BB00010018FE190E00E94BB0FEC01009749F01B
:100BC0009983888385E08B8F1C8ECE010E942F092C
:100BD0001A8ED0933701C093360110E000E022E076
:100BE00040EC50E070E060E084EE93E00E94D90FAA
:100BF00023E040EC50E070E060E08CE992E00E947D
:100C0000D90FDF91CF911F910F910C9403111F9277
:100C10000F920FB60F9211242F933F938F939F93B0
:100C2000AF93BF938091650190916601A091670198
:100C3000B09168013091640123E0230F2D3758F5FE
:100C40000196A11DB11D20936401809365019093CD
:100C50006601A0936701B093680180916001909153
:100C60006101A0916201B09163010196A11DB11DC6
:100C70008093600190936101A0936201B09363013E
:100C8000BF91AF919F918F913F912F910F900FBE88
:100C90000F901F90189526E8230F0296A11DB11DF5
:100CA000D2CFE0916B01F0916C018081811107C07E
:100CB0008FEF9FEF90935401809353010895E0913B
:100CC0006B01F0916C010580F681E02D80819181AE
:100CD000F1CFFC01DB010FB6F8940F924091570160
:100CE000509158012D913C9111972F3F320711F1EE
:100CF00081819281609159017081761749F048177E
:100D0000590730F01D921C9281E00F900FBE08959C
:100D1000481B590B42175307A8F7241B350B2D937B
:100D20003C938091590180838091570190915801A3
:100D30009283818380E0E9CFCF93DF93DC01159626
:100D4000ED91FC910680F781E02DA489B589868517
:100D5000978520893189EC013D832C83C089D18915
:100D60009B838A83CF010C9611962D913C9112970B
:100D70002817390721F41296DC93CE931197158A20
:100D8000148A2C9121502C9320915101211157C08C
:100D9000A285B3858481958126813781EC013D83CD
:100DA0002C83C681D7819B838A83CF0102961196BB
:100DB0002D913C9112972817390721F41296DC9354
:100DC000CE931197138612862C9121502C93C689AD
:100DD0002091BE012C1710F4C093BE0129E02C9F76
:100DE000E0011124C656DE4F0980DA81C02DD5837B
:100DF000C4834C815D8157834683AC81BD8113964A
:100E00009C938E9312979D838C83A689A29FD00179
:100E10001124A656BE4FB387A2878C918F5F8C9307
:100E2000A0913201B0913301968956968C91891721
:100E300030F581E080935001DF91CF910895A0912A
:100E40008001B0918101B787A68714962D913C91BE
:100E50001597318B208B1496CD91DC9115979B8340
:100E60008A8315969C938E9314978FE791E0958BC8
:100E7000848B80917F018F5F80937F01D1CF80E051
:100E8000DBCF0FB6F8940F928091570190915801E3
:100E90000F900FBE0895809151018F5F8093510193
:100EA00008950FB6F8940F92FC01928D0F900FBE2B
:100EB00081E0911180E00895EF92FF920F931F93CC
:100EC000CF93DF93EC010FB6F8940F921E8D7C0147
:100ED00081E1E80EF11C01E01116D4F08FEF8E8F46
:100EE0000F900FBE0FB6F8940F921D8D7E0188E013
:100EF000E80EF11C01E01116B4F08FEF8D8F0F900A
:100F00000FBEDF91CF911F910F91FF90EF90089549
:100F10008989882319F3C7010E949C0681110093D7
:100F200050011150D9CF8885882339F3C7010E9419
:100F30009C068111009350011150DDCFCF93DF93B8
:100F4000FC01A085B1858281938124813581EC01EA
:100F50003D832C83C481D5819B838A8311968D9197
:100F60009C9112978E179F0721F41296DC93CE93D3
:100F70001197118610868C9181508C938C91DF9102
:100F8000CF9108950F931F93CF93DF938C01FB01B3
:100F900080819181D80113968F3F9807F1F4E80181
:100FA000AF81B88512968D919C911397938382831C
:100FB000EC01FD83EC83B583A4831396FC93EE933D
:100FC000129711870087F80180818F5F8083DF91FE
:100FD000CF911F910F910895D90112962D913C91B7
:100FE0001397E9014881598184179507A8F7DACF4B
:100FF000FC0173836283918780874617570790F0BF
:10100000421B530B8485958548175907C8F4BF01C7
:101010006E5F7F4F80915C0190915D010E94C207DD
:1010200080E008954217530718F46217730740F4DD
:10103000BF016E5F7F4F80915E0190915F01EECFA7
:1010400081E00895EF92FF920F931F93CF93DF9368
:10105000EC018B017A016C857D85600F711F980111
:10106000A701CE010E94F807811107C0DF91CF913F
:101070001F910F91FF90EF9008958C859D85080F2B
:10108000191FE889F989CE010995E5CFEF92FF9202
:101090000F931F93CF93DF938C017B01E0915E014F
:1010A000F0915F010580F681E02DC681D781CE01E8
:1010B00002960E949E078A8982FF0FC0A701B8018D
:1010C000CE010E942208E889F989CE01DF91CF91F3
:1010D0001F910F91FF90EF9009948E7F8A8BF3CF31
:1010E000E0915E01F0915F01808181110DC08091DE
:1010F0005C0190915D0190935F0180935E01F0939C
:101100005D01E0935C0108950580F681E02D6FEFAD
:101110007FEF808191810E944608E2CFFF920F937A
:101120001F93CF93DF93EC01F62E0091570110919E
:101130005801809132019091330102960E949E07DE
:10114000CF3FDC07E9F5FF20D9F1E0916E01F09186
:101150006F01A0913201B09133011596FC93EE938B
:101160001497A0913201B091330184819581179633
:101170009C938E9316978091320190913301A481B4
:10118000B581029613969C938E93129780913201AB
:1011900090913301029695838483E0913201F0911E
:1011A00033018DE691E09387828780916D018F5F97
:1011B00080936D01DF91CF911F910F91FF90089562
:1011C000C00FD11FE0913201F0913301D383C2836C
:1011D0006091320170913301C017D10768F480919A
:1011E000690190916A016E5F7F4FDF91CF911F91EE
:1011F0000F91FF900C94C20780916B0190916C014C
:101200006E5F7F4F0E94C2078091530190915401FD
:10121000C817D90778F6D0935401C0935301CACFA9
:10122000CF93DF93EB016091320170913301645FE2
:101230007F4F0E94C20761E0CE01DF91CF910C94F5
:101240008E08FC010396928381832FEF3FEF348356
:101250002383968385839087878310820895CF9315
:10126000DF93EC010FB6F8940F92888199812B8D52
:101270004C8DBC01249F600D711D11247D836C83F6
:101280001A8E9B838A832150330B429FB001439F68
:10129000700D1124860F971F9F838E838FEF8D8F84
:1012A0008E8FCE0108960E942109CE0141960E94A0
:1012B00021090F900FBE81E0DF91CF9108950F9229
:1012C0000FB6F8940F921F9211242F923F924F92D3
:1012D0005F926F927F928F929F92AF92BF92CF92C6
:1012E000DF92EF92FF920F931F932F933F934F93B1
:1012F0005F936F937F938F939F93AF93BF93CF939E
:10130000DF93EF93FF93A0913201B09133010DB6BB
:101310000D920EB60D9280915101882321F081E04B
:10132000809350015FC010925001A0913201B091A2
:101330003301E0913201F09133012D913C91878985
:10134000908D82179307A8F080913201909133011C
:101350008091320190913301259A2D9A2FEF87EADF
:1013600091E6215080409040E1F700C000001D9AB6
:10137000F5CF2091BE0189E001C02150422F50E0FD
:10138000849FF001859FF00D1124E656FE4F908159
:10139000992399F3A181B28112960D90BC91A02D51
:1013A000B283A183289FC001112483569E4FA817A2
:1013B000B90729F412968D919C919283818389E0DB
:1013C000849FF001859FF00D1124E656FE4F0180A9
:1013D000F281E02D868197819093330180933201D1
:1013E0002093BE01A0913201B0913301CD91CDBFC8
:1013F000DD91DEBFFF91EF91DF91CF91BF91AF9172
:101400009F918F917F916F915F914F913F912F911C
:101410001F910F91FF90EF90DF90CF90BF90AF9012
:101420009F908F907F906F905F904F903F902F9004
:101430001F900F900FBE0F9008958F929F92BF92B2
:10144000CF92DF92EF92FF920F931F93CF93DF9390
:101450000FB6F8940F928091510181508093510101
:1014600080915101882379F080E00F900FBEDF91C9
:10147000CF911F910F91FF90EF90DF90CF90BF9091
:101480009F908F9008958091C101882369F3E09027
:101490008401F0908501F0E0E0E039E041E08091E6
:1014A0007F0181115EC0EF2B11F00E945106E09088
:1014B0004E01F0904F01E114F10409F47DC189E07F
:1014C000D82ECC24C3940FEF1FEF809151018111CE
:1014D00061C1C0915701D09158014E018FEF881A18
:1014E000980A909258018092570181149104B9F49E
:1014F00080916B0190916C012091690130916A019A
:1015000030936C0120936B0190936A018093690181
:10151000809159018F5F809359010E9451068091FB
:10152000530190915401B12C8816990608F026C1F8
:10153000E0913201F0913301E689DE9EF001112441
:10154000E656FE4F8081823010F0BB24B394809128
:101550005001811103C0BB2009F425C1C092500184
:1015600022C1D7011696ED91FC91A489B5896685B3
:10157000778580899189EB019D838C83808991890E
:10158000EC017B836A83BF01645F7F4F11960D91ED
:101590001C9112970617170721F412969C938E93AD
:1015A0001197158A148A8C9181508C93A285B385EA
:1015B0008481958166817781EC017D836C8366816E
:1015C0007781EB019B838A83CF01029611960D915F
:1015D0001C9112970817190721F412967C936E93A9
:1015E0001197138612862C9121502C93A689209155
:1015F000BE012A1710F4A093BE013A9FD001112416
:10160000A656BE4F11960D90BC91A02DB583A48314
:1016100014966D917C9115977783668314966D91DE
:101620007C911597EB019B838A8315969C938E93EF
:1016300014979689939FD0011124A656BE4FB38765
:10164000A2878C918F5F8C93A0913201B09133016E
:1016500056968C91981708F422CF409350011FCFD3
:10166000E0916B01F0916C010580F681E02D068020
:10167000F781E02D828193818816990628F4909352
:1016800054018093530154CFC285D38584819581C1
:1016900026813781DC0115963C932E931497268181
:1016A0003781D90113969C938E931297CF0102969E
:1016B00049815A814817590711F43A8329831386BF
:1016C0001286288121502883A489B5891097F9F0C2
:1016D0002685378540895189E9015D834C8340899E
:1016E0005189EA013B832A8311966D917C9112976F
:1016F0009F01245F3F4F6217730721F412965C939A
:101700004E931197158A148A2C9121502C93A689F7
:101710002091BE012A1710F4A093BE01DA9ED001D9
:101720001124A656BE4F11960D90BC91A02DB583E5
:10173000A48314962D913C91159737832683149694
:101740002D913C911597E9019B838A8315969C9373
:101750008E93149796899D9DD0011124A656BE4F55
:10176000B387A2878C918F5F8C93E0913201F091C7
:1017700033018689981710F0BB24B394E0916B0174
:10178000F0916C01808181116BCF10935401009313
:101790005301CECE80914E0190914F0101969093CE
:1017A0004F0180934E01D1E0ED1AF10809F08DCE82
:1017B00010924F0110924E0180915001882309F43C
:1017C00053CE0E945F0981E050CE0F920FB6F8947D
:1017D0000F921F9211242F923F924F925F926F921D
:1017E0007F928F929F92AF92BF92CF92DF92EF92B1
:1017F000FF920F931F932F933F934F935F936F939A
:101800007F938F939F93AF93BF93CF93DF93EF9388
:10181000FF93A0913201B09133010DB60D920EB637
:101820000D9213BE809151018111F9C08091570131
:101830009091580101969093580180935701009719
:1018400081F520916B0130916C01409169015091BB
:101850006A0150936C0140936B0130936A012093AD
:101860006901209159012F5F20935901E0916B018B
:10187000F0916C012081211107C02FEF3FEF3093D1
:101880005401209353010DC0E0916B01F0916C0164
:101890000580F681E02D2081318130935401209321
:1018A000530120915301309154018217930710F492
:1018B00020E0A1C020E039E0D32EE0916B01F0914F
:1018C0006C013081311107C08FEF9FEF909354016D
:1018D0008093530190C0E0916B01F0916C01058001
:1018E000F681E02D0680F781E02D42815381841737
:1018F000950728F450935401409353017CC0A2856E
:10190000B3854481558166817781EA017D836C834B
:1019100066817781EB015B834A83AF014E5F5F4F46
:1019200011960D911C9112970417150721F4129628
:101930007C936E931197138612863C9131503C93A1
:10194000A489B5891097F9F0668577850089118992
:10195000EB011D830C8300891189E8017B836A8375
:101960001196ED90FC901297BF01645F7F4FE616D1
:10197000F70621F412961C930E931197158A148A78
:101980003C9131503C93A6893091BE013A1710F436
:10199000A093BE01DA9ED0011124A656BE4F119627
:1019A0000D90BC91A02DB583A48314966D917C916C
:1019B00015977783668314966D917C911597EB014B
:1019C0005B834A8315965C934E93149746894D9D8D
:1019D000D0011124A656BE4FB387A2873C913F5F2A
:1019E0003C93E0913201F09133013689431708F4BA
:1019F00064CF21E062CFE0913201F0913301E689BA
:101A0000D9E0ED9FF0011124E656FE4F808182302F
:101A100008F021E08091500181110EC00AC0809130
:101A20004E0190914F01019690934F0180934E018A
:101A30006AC0222309F467C080915101882321F0F4
:101A400081E0809350015FC010925001A09132015B
:101A5000B0913301E0913201F09133012D913C912D
:101A60008789908D82179307A8F080913201909119
:101A700033018091320190913301259A2D9A2FEFF5
:101A800087EA91E6215080409040E1F700C00000D5
:101A90001D9AF5CF2091BE0189E001C02150422F4F
:101AA00050E0849FF001859FF00D1124E656FE4F13
:101AB0009081992399F3A181B28112960D90BC91E6
:101AC000A02DB283A183289FC001112483569E4F6D
:101AD000A817B90729F412968D919C91928381835E
:101AE00089E0849FF001859FF00D1124E656FE4F9A
:101AF0000180F281E02D868197819093330180935C
:101B000032012093BE01A0913201B0913301CD91F9
:101B1000CDBFDD91DEBFFF91EF91DF91CF91BF91FE
:101B2000AF919F918F917F916F915F914F913F9175
:101B30002F911F910F91FF90EF90DF90CF90BF906A
:101B4000AF909F908F907F906F905F904F903F905D
:101B50002F901F900F900FBE0F900895CF93DF939B
:101B6000009751F0EC010E944B07CE010E94C11278
:101B7000DF91CF910C941D0ADF91CF910895CF93FF
:101B8000DF93CDB7DEB72A970FB6F894DEBF0FBE4E
:101B9000CDBFE0915E01F0915F011081F12CE12C4D
:101BA000112329F00580F681E02DE080F1800E946C
:101BB0004B070E9441076C0180915501909156019D
:101BC000C816D90608F08CC00E947008D092560141
:101BD000C09255010E941D0A00915A0110915B01AB
:101BE0001A86198680E06801F1E1CF0ED11C0FB68C
:101BF000F8940F92D8015A96FC905A97FF2009F456
:101C000030C15C964C915C97442301F150E01696EC
:101C10008D919C911797840F951F17969C938E9387
:101C2000169714962D913C9115978217930738F0CB
:101C30008D919C91119717969C938E931697F8010E
:101C400066817781CE0101960E945013FA94D801E3
:101C50005A96FC925A9718968C91882339F0C801AD
:101C600008960E949C0681110E945F090F900FBE8A
:101C7000D980D7FCB1CF0C811D81D8011A968D91E6
:101C80009C91892B21F0C80102960E949E070E9418
:101C900041077C018091550190915601E816F906A3
:101CA00010F40E947008F0925601E0925501EFEF97
:101CB000ED0DE93008F090CF0E2E000CFF0BE95926
:101CC000F14FD80152968C9152970C944A13EA0E18
:101CD000EA0E2D0F150F270FEA0EEA0E2D0F150F26
:101CE000D0925601C0925501112351F0CE14DF0459
:101CF00070F00E941D0AB601C7010E9446086CCF11
:101D0000E0915C01F0915D01808161E0811160E012
:101D100000915A0110915B010FB6F8940F92D8010F
:101D20005D968C915D978F3F11F45D961C92F80142
:101D3000868D8F3F09F4168E0F900FBED8015A96EC
:101D40008C915A9781113CC05296ED91FC91A091D3
:101D50003201B09133011F96FC93EE931E97A09130
:101D60003201B09133018481958151969C938E9379
:101D700050978091320190913301A481B5810C96E6
:101D800013969C938E931297809132019091330118
:101D90000C9695838483E0913201F0913301C80160
:101DA0004196958B848BF80181898F5F818BC70168
:101DB0008C199D09662311F08FEF9FEF0E948E080A
:101DC000C8010E945C070E941D0A811105CF0E9474
:101DD0005F0902CF8160F801828BCA80DB80648555
:101DE00075856C0D7D1D9601A701C8010E94F8073D
:101DF000882309F4F1CED80152968C91529782FF34
:101E000010C01C966D917C916C0D7D1DA701C801C1
:101E10000E942208D8015096ED91FC91C8010995C5
:101E2000DBCE8E7FF801828BF5CF816052968C934A
:101E300052976A817B811D967C936E931C976E0DE1
:101E40007F1D9701A701C8010E94F807C5CE81FD3B
:101E500004C0C8010E94AE0DBFCE8E7FF801828BF8
:101E6000BBCE29853A85232B19F40F900FBE91CE56
:101E7000811109C0809159018E8380915701909101
:101E8000580198878F830F900FBE0E944B070FB6A3
:101E9000F8940F92F801858D8F3F09F4158ED801C3
:101EA0005E968C915E978F3F11F45E961C920F9018
:101EB0000FBEBE01675F7F4FCE0106960E94690686
:101EC00081111BC0C8010E945107882381F06985D8
:101ED0007A85C6010E941009C8010E945C070E9411
:101EE0001D0A811102C00E945F0981E080CEC801F5
:101EF0000E945C070E941D0AF8CFC8010E945C077F
:101F00000E941D0AC8010E945107882371F341CE27
:101F100000E010E08091520181110CC080919A0183
:101F2000823010F00E945F090115110599F30E949B
:101F30000000F0CF0FB6F8940F92E0917B01F09182
:101F40007C01C681D781CE0102960E949E078091B6
:101F5000C10181508093C1018091520181508093D1
:101F600052010F900FBE8F89988D0E94AE0DCE0149
:101F70000E94AE0DCFCFCF93DF93EC010E944B07B1
:101F8000CE010E942512EC010E941D0A209769F4DF
:101F9000259A2D9A2FEF80E792E0215080409040C3
:101FA000E1F700C000001D9AF5CFCE01DF91CF917F
:101FB00008957F928F929F92AF92BF92CF92DF92BD
:101FC000EF92FF920F931F93CF93DF93782E892E7A
:101FD0007B016A01922ECA010E94BB0F5C01892B12
:101FE00009F4D9C088E290E00E94BB0FEC01892B74
:101FF00009F4CEC088E2DE011D928A95E9F7B88E19
:10200000AF8AA60165EA70E0C5010E945913B1E0EC
:10201000CB1AD108EF89F88DEC0DFD1DE114F10408
:1020200009F0C8C09E8A99A21B861A861D8A1C8A3E
:10203000D987C88784E090E0891991099D878C87AA
:10204000DB8BCA8B7082DF0111978C9211971C92E7
:10205000119780E88C9311971C9257971C921197B7
:102060001C92B397F983E8830115110519F0F80163
:10207000D183C0830FB6F8940F928091C1018F5F16
:102080008093C1018091320190913301892B09F035
:10209000A8C0D0933301C09332018091C101813037
:1020A00081F58AE991E00E94210983EA91E00E948A
:1020B00021098CEA91E00E94210985EB91E00E94C0
:1020C000210981E991E00E94210988E891E00E94BC
:1020D00021098FE791E00E94210986E791E00E94A3
:1020E00021098DE691E00E94210981E991E0909318
:1020F0006C0180936B0188E891E090936A01809372
:1021000069018091BF018F5F8093BF01AE8980918B
:10211000BE018A1710F4A093BE0129E02A9FD001C6
:102120001124A656BE4F11960D90BC91A02DBD83D3
:10213000AC8314968D919C9115979F838E831496F2
:10214000ED91FC911597CE010296938382831596AB
:102150009C938E931497EE89E29FF0011124E6562A
:10216000FE4FFB87EA8780818F5F80830F900FBED1
:102170008091C001882351F0E0913201F091330148
:1021800096898E89981710F40E945F0981E004C037
:10219000C5010E94AE0D8FEFDF91CF911F910F917E
:1021A000FF90EF90DF90CF90BF90AF909F908F9077
:1021B0007F900895CE0149969701285F3F4FD70140
:1021C0004D917D01DC014D93CD01A7014150510995
:1021D000DA014C91442319F0E216F30681F718A2B4
:1021E00021CF8091C00181118CCFE0913201F0911B
:1021F000330196898E89891708F483CFD0933301F0
:10220000C09332017ECF0F931F93CF93DF930CE4E3
:1022100011E020E040EC50E065E271E088E89FE0EA
:102220000E94D90F813009F08CC00FB6F8940F923C
:1022300080915A0190915B01892B49F581E491E0ED
:102240000E94210988E391E00E94210981E491E044
:1022500090935F0180935E0188E391E090935D012C
:1022600080935C0181E590E00E94BB0FEC01009738
:1022700051F04F96998388838AE08B8F85E08C8F0D
:10228000CE010E942F09D0935B01C0935A010F9099
:102290000FBE80915A0190915B01892B09F451C0C6
:1022A0000AE411E023E045E550E06AE271E08FEBDB
:1022B0009DE00E94D90F813009F043C0F8942FEFC0
:1022C0003FEF30935401209353018093C00110924B
:1022D000580110925701A89588E190EC0FB6F89438
:1022E000A895809360000FBE90936000A09132018A
:1022F000B0913301CD91CDBFDD91DEBFFF91EF9164
:10230000DF91CF91BF91AF919F918F917F916F910D
:102310005F914F913F912F911F910F91FF90EF90FF
:10232000DF90CF90BF90AF909F908F907F906F90F5
:102330005F904F903F902F901F900F900FBE0F9087
:10234000089580910001DF91CF911F910F91089521
:102350000E94E50B1895789484B5826084BD84B59D
:10236000816084BD85B5826085BD85B5816085BD90
:1023700080916E00816080936E0010928100809148
:1023800081008260809381008091810081608093D0
:102390008100809180008160809380008091B100F5
:1023A00084608093B1008091B00081608093B00020
:1023B00080917A00846080937A0080917A008260B4
:1023C00080937A0080917A00816080937A00809176
:1023D0007A00806880937A001092C10020910501F4
:1023E000309106018FEF98E0821B930B90930201CE
:1023F000809301010E94CE050E9403110E94CE0528
:10240000C0E0D0E02097F1F30E940000FBCFE2ECA7
:10241000F1E0138212828BE091E0918380838DE062
:1024200084838FEF85838CE086838BE087838AE0CB
:10243000808789E0818788E08287138614861586E5
:102440001686178681E00C94DB010F931F93CF93C0
:10245000DF938230910510F482E090E0E091DC019E
:10246000F091DD0130E020E0B0E0A0E0309799F499
:102470002115310509F44AC0281B390B24303105D8
:10248000D8F58A819B816115710589F1FB019383E0
:102490008283FE0111C0408151810281138148175E
:1024A0005907E0F04817590799F4109761F0129610
:1024B0000C93129713961C933296CF01DF91CF9114
:1024C0001F910F9108950093DC011093DD01F4CF6B
:1024D0002115310551F04217530738F0A901DB01EE
:1024E0009A01BD01DF01F801C1CFEF01F9CF90934F
:1024F000DD018093DC01CDCFFE01E20FF31F81935C
:1025000091932250310939832883D7CF2091DA0162
:102510003091DB01232B41F4209103013091040120
:102520003093DB012093DA01209101013091020107
:102530002115310541F42DB73EB740910501509169
:102540000601241B350BE091DA01F091DB01E21763
:10255000F307A0F42E1B3F0B2817390778F0AC01C6
:102560004E5F5F4F2417350748F04E0F5F1F5093A3
:10257000DB014093DA01819391939FCFF0E0E0E09B
:102580009CCFCF93DF930097E9F0FC013297138241
:102590001282A091DC01B091DD01ED0130E020E07C
:1025A0001097A1F420813181820F931F2091DA01CD
:1025B0003091DB012817390709F061C0F093DB0186
:1025C000E093DA01DF91CF910895EA01CE17DF079A
:1025D000E8F54A815B819E0141155105B1F7E9019A
:1025E000FB83EA8349915991C40FD51FEC17FD076E
:1025F00061F4808191810296840F951FE90199838E
:102600008883828193819B838A83F0E0E0E0129645
:102610008D919C9113970097B9F52D913C9111974D
:10262000CD010296820F931F2091DA013091DB01D8
:102630002817390739F6309751F51092DD011092BD
:10264000DC01B093DB01A093DA01BCCFD383C2835A
:1026500040815181840F951FC817D90761F44E5FDF
:102660005F4F88819981480F591F518340838A8128
:102670009B81938382832115310509F0B0CFF093BC
:10268000DD01E093DC019ECFFD01DC01C0CF1382B0
:102690001282D7CFEE0FFF1F0590F491E02D099421
:1026A000FB01DC0102C001900D9241505040D8F76F
:1026B0000895DC0101C06D9341505040E0F708954A
:0426C000F894FFCFBC
:1026C400030000DE0180000000000096028C00423E
:1026D400014101427574746F6E20697320707265D4
:1026E400737365640049444C4500546D72205376FD
:0226F400630081
:00000001FF
